S01200004C6162313170617274312E73726563B9
S1130000500000EB0000A0E3BC0F09EE1110A0E3C8
S11300103D1F09EE0100A0E33C0F09EE0300A0E33D
S11300201C0F09EE0116A0E3012CA0E30230A0E3AB
S11300300040A0E30C60A0E30050A0E3016086E26E
S1130040056191E7015085E2020055E1036086E213
S1130050FAFFFFBA014084E2030054E1026086E241
S1130060F4FFFFBA0000A0E31C0F09EE0000A0E3B8
S1130070BC0F09EE5D3F19EE056086E2FFFFFFEA63
S11300800000A0E3BC0F09EE0610A0E33D1F09EE3B
S11300900100A0E33C0F09EE0300A0E31C0F09EEEE
S11300A00116A0E3012CA0E30230A0E30040A0E38A
S11300B00050A0E3056191E7015085E2020055E19B
S11300C0FBFFFFBA014084E2030054E1F7FFFFBAEB
S11300D00000A0E31C0F09EE0000A0E3BC0F09EE32
S11300E05D3F19EE0000A0E33D1F09EEFFFFFFEAAC
S11300F00100A0E33C0F09EE0300A0E31C0F09EE8E
S11301000116A0E3012CA0E30230A0E30040A0E329
S11301100050A0E3056191E7015085E2020055E13A
S1130120FBFFFFBA014084E2030054E1F7FFFFBA8A
S11301300000A0E31C0F09EE0000A0E3BC0F09EED1
S11301405D3F19EEFEFFFFEAF0032DE9100F11EEFB
S1130150A8109FE5010050E12500001A0166A0E304
S1130160007096E50286A0E3009098E590109FE564
S113017090209FE50136A0E30142A0E30000A0E344
S1130180900305E0010B50E3015085B1025085A1B5
S1130190005184E7010080E2010A50E3F7FFFFBA4F
S11301A0035081E0085084E5835081E0045084E5E5
S11301B00000A0E3500F02EE0102A0E3100F02EED4
S11301C00100A0E3100F03EE0000A0E3300F0DEEDA
S11301D0100F11EE050080E3100F01EE6FF07FF5B4
S11301E0001096E5090051E10100001A0000A0E3A7
S11301F0000000EA0100A0E3F003BDE81EFF2FE1C8
S10F02007A18C5000E1C0800020C08004F
S113020C00000000000000000000000020020000BC
S107021C00000000DA
S9030000FC
